:020000040000FA
:10000000600400206D020000710200007302000015
:100010007502000077020000790200000000000075
:100020000000000000000000000000007B02000053
:100030007D020000000000007F020000810200003D
:10004000830200008302000083020000830200009C
:10005000830200008302000083020000830200008C
:10006000830200008302000083020000830200007C
:10007000830200008302000083020000830200006C
:10008000830200008302000083020000830200005C
:10009000830200008302000083020000830200004C
:1000A000830200008302000083020000830200003C
:1000B000830200008302000083020000830200002C
:1000C000830200008302000083020000830200001C
:1000D000830200008302000083020000830200000C
:1000E00083020000830200008302000083020000FC
:1000F00083020000830200008302000083020000EC
:1001000083020000830200008302000083020000DB
:1001100083020000830200008302000083020000CB
:1001200083020000830200008302000083020000BB
:1001300083020000830200008302000083020000AB
:1001400000000000000000000000000000000000AF
:10015000830200008302000083020000830200008B
:10016000000000000000000000000000000000008F
:10017000000000000000000000000000000000007F
:10018000000000000000000000000000000000006F
:10019000000000000000000000000000000000005F
:1001A000000000000000000000000000000000004F
:1001B000830200008302000083020000830200002B
:1001C000830200008302000083020000830200001B
:1001D000830200008302000083020000830200000B
:1001E00083020000830200008302000083020000FB
:1001F00083020000830200008302000083020000EB
:10020000830200008302000083020000000000005F
:1002100083020000830200008302000083020000CA
:1002200083020000830200008302000083020000BA
:1002300083020000830200008302000083020000AA
:10024000830200008302000083020000830200009A
:10025000830200008302000083020000830200008A
:1002600083020000830200008302000000F00AB84D
:10027000FEE7FEE7FEE7FEE7FEE7FEE7FEE7FEE756
:10028000FEE7FEE700F002F800F042F814A696E858
:10029000000CB244B344DA4501D100F039F8BAE8B1
:1002A0000F000FA696E83000A5EB040504EB060747
:1002B000AAEB0704A7F101074FEA15154FEA34141A
:1002C000A4F10104AC4201D300F022F813F0010FB5
:1002D00018BFFB1A43F0010300F001F8DBE71847F1
:1002E0004404000054040000704700000023002470
:1002F00000250026103A28BF78C1FBD8520728BF36
:1003000030C148BF0B6070471FB51FBD10B510BD91
:1003100000F029F81146FFF7F7FF00F0DFF900F0D1
:1003200047F803B4FFF7F2FF03BC00F04FF80000FA
:1003300072B6704762B67047EFF3108072B67047BE
:1003400080F31088704730BF704702480249014A65
:10035000024B704760000020600400206000002015
:10036000704770477047754600F02CF8AE460500A0
:100370006946534620F00700854618B020B5FFF7C0
:10038000E4FFBDE820404FF000064FF000074FF0BB
:1003900000084FF0000BAC46ACE8C009ACE8C0095F
:1003A000ACE8C009ACE8C00921F007018D467047F0
:1003B00010B50446AFF300802046BDE81040FFF7BB
:1003C000B0BF00000048704700000020014918201D
:1003D000ABBEFEE7260002007047000081B000902F
:1003E000FFE7009890B1FFE72421C4F20301012048
:1003F0000860FFE71C20C4F203000068C00708B9CA
:10040000FFE7F7E7009801380090EAE701B070478E
:100410004EF20461C4F20F01086840F00100086068
:10042000FFE74EF20460C4F20F000068C00708B98D
:10043000FFE7F6E70C21C4F2030100200860002268
:10044000C4F2030210600423C4F2030302221A6000
:100450003822C4F2030210602822C4F203024CF2D4
:100460004F3010602422C4F20302012010600860A3
:10047000704700004EF20861C4F20F01086840F0B6
:1004800010000860FFE74EF60820C4F20F00006875
:10049000C006002801D4FFE7F5E744F21C51C4F27E
:1004A0000201086840F00100086044F20041C4F213
:1004B0000201086840F00100086044F22851C4F2CB
:1004C0000201086820F00100086044F22041C4F2F3
:1004D0000201086820F00100086044F2FC31C4F217
:1004E0000201086820F001000860704780B582B002
:1004F00044F2FC31C4F202010091086820F00100CE
:10050000086001200190FFF769FF009A01981168C7
:1005100041F001011160FFF761FF009A0198116835
:1005200021F001011160FFF759FF02B080BD00000A
:1005300081B04EF27001C4F20F010091086840F0E2
:1005400000400860086840F4006008604EF26002F5
:10055000C4F20F02106820F4F8601060106800F513
:10056000A8601060086820F07000086008680860E3
:10057000086820F400500860086840F08040086077
:100580000868072262F39C500860FFE74EF25000B3
:10059000C4F20F0000684006002801D4FFE7F5E729
:1005A0004EF27001C4F20F01086820F40060086088
:1005B00001B070474EF21C61C4F20F01086840F0B0
:1005C000010008604EF20861C4F20F01086840F0B3
:1005D00001000860FFE74EF60820C4F20F00006833
:1005E000C00708B9FFE7F6E744F22041C4F2000172
:1005F000086840F03C00086044F21C51C4F200015D
:10060000086840F03C00086044F22C51C4F200013C
:1006100008686FF317200860086842F20022C0F2F1
:1006200022021043086044F22851C4F20001086815
:1006300020F03C00086048F20401C4F200010020F0
:10064000086048F6C872C4F20002106048F2100256
:10065000C4F200023220106048F20002C4F200022C
:1006600007201060086840F0020008607047000032
:1006700081B08DF80300FFE748F20C00C4F20000DF
:1006800000688007002801D4FFE7F5E79DF8030024
:1006900048F20801C4F200010860FFE748F20C00CC
:1006A000C4F200000068C006002801D5FFE7F5E7A6
:1006B00001B0704780B5FFF73BFFFFF77BFFFFF707
:1006C000D9FEFFF7A5FE80BD44F2FC31C4F2020161
:1006D000086820F0010008607047000080B582B013
:1006E00000200190FFF7E6FF01208DF80300FFE7EF
:1006F000FFF7EAFF9DF80300FFF7BAFFFFF7F6FEEA
:100700009DF8030040008DF803009DF8030020B918
:10071000FFE701208DF80300FFE74FF4FA70FFF7C1
:100720005DFEE5E7340700000000002060040000E3
:04073000EC020000D7
:040000050000028570
:00000001FF
