:020000040000FA
:10000000A80400206D0200007102000073020000CD
:100010007502000077020000790200000000000075
:100020000000000000000000000000007B02000053
:100030007D020000000000007F020000810200003D
:10004000830200008302000083020000830200009C
:1000500083020000E5060000830200008302000026
:10006000830200008302000083020000830200007C
:10007000830200008302000083020000830200006C
:10008000830200008302000083020000830200005C
:10009000830200008302000083020000830200004C
:1000A000830200008302000083020000830200003C
:1000B000830200008302000083020000830200002C
:1000C000830200008302000083020000830200001C
:1000D000830200008302000083020000830200000C
:1000E00083020000830200008302000083020000FC
:1000F00083020000830200008302000083020000EC
:1001000083020000830200008302000083020000DB
:1001100083020000830200008302000083020000CB
:1001200083020000830200008302000083020000BB
:1001300083020000830200008302000083020000AB
:1001400000000000000000000000000000000000AF
:10015000830200008302000083020000830200008B
:10016000000000000000000000000000000000008F
:10017000000000000000000000000000000000007F
:10018000000000000000000000000000000000006F
:10019000000000000000000000000000000000005F
:1001A000000000000000000000000000000000004F
:1001B000830200008302000083020000830200002B
:1001C000830200008302000083020000830200001B
:1001D000830200008302000083020000830200000B
:1001E00083020000830200008302000083020000FB
:1001F00083020000830200008302000083020000EB
:10020000830200008302000083020000000000005F
:1002100083020000830200008302000083020000CA
:1002200083020000830200008302000083020000BA
:1002300083020000830200008302000083020000AA
:10024000830200008302000083020000830200009A
:10025000830200008302000083020000830200008A
:1002600083020000830200008302000000F00AB84D
:10027000FEE7FEE7FEE7FEE7FEE7FEE7FEE7FEE756
:10028000FEE7FEE700F002F800F042F814A696E858
:10029000000CB244B344DA4501D100F039F8BAE8B1
:1002A0000F000FA696E83000A5EB040504EB060747
:1002B000AAEB0704A7F101074FEA15154FEA34141A
:1002C000A4F10104AC4201D300F022F813F0010FB5
:1002D00018BFFB1A43F0010300F001F8DBE71847F1
:1002E000F804000008050000704700000023002407
:1002F00000250026103A28BF78C1FBD8520728BF36
:1003000030C148BF0B6070471FB51FBD10B510BD91
:1003100000F029F81146FFF7F7FF00F021FA00F08E
:1003200047F803B4FFF7F2FF03BC00F04FF80000FA
:1003300072B6704762B67047EFF3108072B67047BE
:1003400080F31088704730BF704702480249014A65
:10035000024B7047A8000020A8040020A80000203D
:10036000704770477047754600F02CF8AE460500A0
:100370006946534620F00700854618B020B5FFF7C0
:10038000E4FFBDE820404FF000064FF000074FF0BB
:1003900000084FF0000BAC46ACE8C009ACE8C0095F
:1003A000ACE8C009ACE8C00921F007018D467047F0
:1003B00010B50446AFF300802046BDE81040FFF7BB
:1003C000B0BF00000048704700000020014918201D
:1003D000ABBEFEE7260002007047000081B000902F
:1003E000FFE7009890B1FFE72421C4F20301012048
:1003F0000860FFE71C20C4F203000068C00708B9CA
:10040000FFE7F7E7009801380090EAE701B070478E
:100410004EF20461C4F20F01086840F00100086068
:10042000FFE74EF20460C4F20F000068C00708B98D
:10043000FFE7F6E70C21C4F2030100200860002268
:10044000C4F2030210600423C4F2030302221A6000
:100450003822C4F2030210602822C4F203024CF2D4
:100460004F3010602422C4F20302012010600860A3
:10047000704700004EF20861C4F20F01086840F0B6
:1004800010000860FFE74EF60820C4F20F00006875
:10049000C006002801D4FFE7F5E744F21C51C4F27E
:1004A0000201086840F00100086044F20041C4F213
:1004B0000201086840F00100086044F22851C4F2CB
:1004C0000201086820F00100086044F22041C4F2F3
:1004D0000201086820F00100086044F2FC31C4F217
:1004E0000201086820F00100086070474EF20861C0
:1004F000C4F20F01086840F002000860FFE74EF206
:100500000860C4F20F0000688007002801D4FFE7EC
:10051000F5E745F21C51C4F20001086840F0010003
:10052000086045F20041C4F20001086840F0010093
:10053000086045F22851C4F20001086820F001006B
:10054000086045F22041C4F20001086820F0010073
:10055000086045F2FC31C4F20001086820F0010097
:100560000860704745F2FC31C4F20001086820F0D1
:10057000010008607047000045F2FC31C4F2000140
:10058000086840F0010008607047000081B04EF23A
:100590007001C4F20F010091086840F0004008604B
:1005A000086840F4006008604EF26002C4F20F0276
:1005B000106820F4F8601060106800F5A860106002
:1005C000086820F07000086008680860086820F477
:1005D00000500860086840F0804008600868072202
:1005E00062F39C500860FFE74EF25000C4F20F0027
:1005F00000684006002801D4FFE7F5E74EF27001DD
:10060000C4F20F01086820F40060086001B0704770
:100610004EF21C61C4F20F01086840F0010008604E
:100620004EF20861C4F20F01086840F00100086052
:10063000FFE74EF60820C4F20F000068C00708B9B3
:10064000FFE7F6E744F22041C4F20001086840F0F9
:100650003C00086044F21C51C4F20001086840F0FC
:100660003C00086044F22C51C4F2000108686FF3AA
:1006700017200860086842F20022C0F222021043EC
:10068000086044F22851C4F20001086820F03C00E0
:10069000086048F20401C4F200010020086048F636
:1006A000C872C4F20002106048F21002C4F20002E4
:1006B0003220106048F20002C4F2000207201060ED
:1006C000086840F0020008607047000080B5FFF73E
:1006D0005DFFFFF79DFFFFF7CDFEFFF799FEFFF7E8
:1006E00005FF80BD80B582B04CF23C00C4F2000032
:1006F0000068C006002821D5FFE7FFE74CF218008C
:10070000C4F200000068C006002810D4FFE74CF2D5
:100710000000C4F2000000688DF807009DF8071083
:1007200040F26000C2F2000000F02EF8E6E74CF262
:100730004401C4F2000110200860FFE74CF23C00C5
:10074000C4F2000000688006002807D5FFE74CF2DD
:100750004401C4F2000120200860FFE702B080BD20
:1007600080B584B000200390FFF7B0FFFFE7FFF7EC
:1007700003FF4FF4FA700190FFF730FEFFF7F2FE2F
:100780000198FFF72BFEF2E783B001908DF803107C
:1007900001980088013000F03F00ADF80000BDF87E
:1007A000000001994988884204D1FFE700208DF8B4
:1007B0000B000DE09DF8030001990A8811440871AF
:1007C000BDF800000199088001208DF80B00FFE7BB
:1007D0009DF80B0003B07047E80700000000002000
:0807E000A8040000EC02000077
:040000050000028570
:00000001FF
